{
  "contractName": "ArtCollectible",
  "abi": [
    {
      "inputs": [],
      "stateMutability": "nonpayable",
      "type": "constructor"
    },
    {
      "anonymous": false,
      "inputs": [
        {
          "indexed": true,
          "internalType": "address",
          "name": "owner",
          "type": "address"
        },
        {
          "indexed": true,
          "internalType": "address",
          "name": "approved",
          "type": "address"
        },
        {
          "indexed": true,
          "internalType": "uint256",
          "name": "tokenId",
          "type": "uint256"
        }
      ],
      "name": "Approval",
      "type": "event"
    },
    {
      "anonymous": false,
      "inputs": [
        {
          "indexed": true,
          "internalType": "address",
          "name": "owner",
          "type": "address"
        },
        {
          "indexed": true,
          "internalType": "address",
          "name": "operator",
          "type": "address"
        },
        {
          "indexed": false,
          "internalType": "bool",
          "name": "approved",
          "type": "bool"
        }
      ],
      "name": "ApprovalForAll",
      "type": "event"
    },
    {
      "anonymous": false,
      "inputs": [
        {
          "indexed": true,
          "internalType": "address",
          "name": "previousOwner",
          "type": "address"
        },
        {
          "indexed": true,
          "internalType": "address",
          "name": "newOwner",
          "type": "address"
        }
      ],
      "name": "OwnershipTransferred",
      "type": "event"
    },
    {
      "anonymous": false,
      "inputs": [
        {
          "indexed": true,
          "internalType": "address",
          "name": "from",
          "type": "address"
        },
        {
          "indexed": true,
          "internalType": "address",
          "name": "to",
          "type": "address"
        },
        {
          "indexed": true,
          "internalType": "uint256",
          "name": "tokenId",
          "type": "uint256"
        }
      ],
      "name": "Transfer",
      "type": "event"
    },
    {
      "inputs": [
        {
          "internalType": "address",
          "name": "to",
          "type": "address"
        },
        {
          "internalType": "uint256",
          "name": "tokenId",
          "type": "uint256"
        }
      ],
      "name": "approve",
      "outputs": [],
      "stateMutability": "nonpayable",
      "type": "function"
    },
    {
      "inputs": [
        {
          "internalType": "address",
          "name": "owner",
          "type": "address"
        }
      ],
      "name": "balanceOf",
      "outputs": [
        {
          "internalType": "uint256",
          "name": "",
          "type": "uint256"
        }
      ],
      "stateMutability": "view",
      "type": "function",
      "constant": true
    },
    {
      "inputs": [
        {
          "internalType": "uint256",
          "name": "tokenId",
          "type": "uint256"
        }
      ],
      "name": "getApproved",
      "outputs": [
        {
          "internalType": "address",
          "name": "",
          "type": "address"
        }
      ],
      "stateMutability": "view",
      "type": "function",
      "constant": true
    },
    {
      "inputs": [
        {
          "internalType": "address",
          "name": "owner",
          "type": "address"
        },
        {
          "internalType": "address",
          "name": "operator",
          "type": "address"
        }
      ],
      "name": "isApprovedForAll",
      "outputs": [
        {
          "internalType": "bool",
          "name": "",
          "type": "bool"
        }
      ],
      "stateMutability": "view",
      "type": "function",
      "constant": true
    },
    {
      "inputs": [],
      "name": "name",
      "outputs": [
        {
          "internalType": "string",
          "name": "",
          "type": "string"
        }
      ],
      "stateMutability": "view",
      "type": "function",
      "constant": true
    },
    {
      "inputs": [],
      "name": "owner",
      "outputs": [
        {
          "internalType": "address",
          "name": "",
          "type": "address"
        }
      ],
      "stateMutability": "view",
      "type": "function",
      "constant": true
    },
    {
      "inputs": [
        {
          "internalType": "uint256",
          "name": "tokenId",
          "type": "uint256"
        }
      ],
      "name": "ownerOf",
      "outputs": [
        {
          "internalType": "address",
          "name": "",
          "type": "address"
        }
      ],
      "stateMutability": "view",
      "type": "function",
      "constant": true
    },
    {
      "inputs": [],
      "name": "renounceOwnership",
      "outputs": [],
      "stateMutability": "nonpayable",
      "type": "function"
    },
    {
      "inputs": [
        {
          "internalType": "address",
          "name": "from",
          "type": "address"
        },
        {
          "internalType": "address",
          "name": "to",
          "type": "address"
        },
        {
          "internalType": "uint256",
          "name": "tokenId",
          "type": "uint256"
        }
      ],
      "name": "safeTransferFrom",
      "outputs": [],
      "stateMutability": "nonpayable",
      "type": "function"
    },
    {
      "inputs": [
        {
          "internalType": "address",
          "name": "from",
          "type": "address"
        },
        {
          "internalType": "address",
          "name": "to",
          "type": "address"
        },
        {
          "internalType": "uint256",
          "name": "tokenId",
          "type": "uint256"
        },
        {
          "internalType": "bytes",
          "name": "_data",
          "type": "bytes"
        }
      ],
      "name": "safeTransferFrom",
      "outputs": [],
      "stateMutability": "nonpayable",
      "type": "function"
    },
    {
      "inputs": [
        {
          "internalType": "address",
          "name": "operator",
          "type": "address"
        },
        {
          "internalType": "bool",
          "name": "approved",
          "type": "bool"
        }
      ],
      "name": "setApprovalForAll",
      "outputs": [],
      "stateMutability": "nonpayable",
      "type": "function"
    },
    {
      "inputs": [
        {
          "internalType": "bytes4",
          "name": "interfaceId",
          "type": "bytes4"
        }
      ],
      "name": "supportsInterface",
      "outputs": [
        {
          "internalType": "bool",
          "name": "",
          "type": "bool"
        }
      ],
      "stateMutability": "view",
      "type": "function",
      "constant": true
    },
    {
      "inputs": [],
      "name": "symbol",
      "outputs": [
        {
          "internalType": "string",
          "name": "",
          "type": "string"
        }
      ],
      "stateMutability": "view",
      "type": "function",
      "constant": true
    },
    {
      "inputs": [
        {
          "internalType": "address",
          "name": "from",
          "type": "address"
        },
        {
          "internalType": "address",
          "name": "to",
          "type": "address"
        },
        {
          "internalType": "uint256",
          "name": "tokenId",
          "type": "uint256"
        }
      ],
      "name": "transferFrom",
      "outputs": [],
      "stateMutability": "nonpayable",
      "type": "function"
    },
    {
      "inputs": [
        {
          "internalType": "address",
          "name": "newOwner",
          "type": "address"
        }
      ],
      "name": "transferOwnership",
      "outputs": [],
      "stateMutability": "nonpayable",
      "type": "function"
    },
    {
      "inputs": [
        {
          "internalType": "string",
          "name": "baseURI_",
          "type": "string"
        }
      ],
      "name": "setBaseURI",
      "outputs": [],
      "stateMutability": "nonpayable",
      "type": "function"
    },
    {
      "inputs": [
        {
          "internalType": "uint256",
          "name": "tokenId",
          "type": "uint256"
        }
      ],
      "name": "tokenURI",
      "outputs": [
        {
          "internalType": "string",
          "name": "",
          "type": "string"
        }
      ],
      "stateMutability": "view",
      "type": "function",
      "constant": true
    },
    {
      "inputs": [
        {
          "internalType": "string",
          "name": "tokenURI",
          "type": "string"
        }
      ],
      "name": "claimItem",
      "outputs": [
        {
          "internalType": "uint256",
          "name": "",
          "type": "uint256"
        }
      ],
      "stateMutability": "nonpayable",
      "type": "function"
    },
    {
      "inputs": [],
      "name": "totalSupply",
      "outputs": [
        {
          "internalType": "uint256",
          "name": "",
          "type": "uint256"
        }
      ],
      "stateMutability": "view",
      "type": "function",
      "constant": true
    }
  ],
  "bytecode": "0x60806040523480156200001157600080fd5b506040518060400160405280600e81526020017f617274436f6c6c65637469626c650000000000000000000000000000000000008152506040518060400160405280600881526020017f415254546f6b656e0000000000000000000000000000000000000000000000008152506200009e62000092620000d860201b60201c565b620000e060201b60201c565b8160019080519060200190620000b6929190620001a4565b508060029080519060200190620000cf929190620001a4565b505050620002b9565b600033905090565b60008060009054906101000a900473ffffffffffffffffffffffffffffffffffffffff169050816000806101000a81548173ffffffffffffffffffffffffffffffffffffffff021916908373ffffffffffffffffffffffffffffffffffffffff1602179055508173ffffffffffffffffffffffffffffffffffffffff168173ffffffffffffffffffffffffffffffffffffffff167f8be0079c531659141344cd1fd0a4f28419497f9722a3daafe3b4186f6b6457e060405160405180910390a35050565b828054620001b29062000254565b90600052602060002090601f016020900481019282620001d6576000855562000222565b82601f10620001f157805160ff191683800117855562000222565b8280016001018555821562000222579182015b828111156200022157825182559160200191906001019062000204565b5b50905062000231919062000235565b5090565b5b808211156200025057600081600090555060010162000236565b5090565b600060028204905060018216806200026d57607f821691505b602082108114156200028457620002836200028a565b5b50919050565b7f4e487b7100000000000000000000000000000000000000000000000000000000600052602260045260246000fd5b612eb380620002c96000396000f3fe608060405234801561001057600080fd5b50600436106101215760003560e01c806370a08231116100ad578063a850e8bd11610071578063a850e8bd146102f4578063b88d4fde14610324578063c87b56dd14610340578063e985e9c514610370578063f2fde38b146103a057610121565b806370a0823114610262578063715018a6146102925780638da5cb5b1461029c57806395d89b41146102ba578063a22cb465146102d857610121565b806318160ddd116100f457806318160ddd146101c057806323b872dd146101de57806342842e0e146101fa57806355f804b3146102165780636352211e1461023257610121565b806301ffc9a71461012657806306fdde0314610156578063081812fc14610174578063095ea7b3146101a4575b600080fd5b610140600480360381019061013b9190611fa6565b6103bc565b60405161014d91906127eb565b60405180910390f35b61015e61049e565b60405161016b9190612806565b60405180910390f35b61018e60048036038101906101899190612039565b610530565b60405161019b9190612784565b60405180910390f35b6101be60048036038101906101b99190611f6a565b6105b5565b005b6101c86106cd565b6040516101d59190612a48565b60405180910390f35b6101f860048036038101906101f39190611e64565b6106de565b005b610214600480360381019061020f9190611e64565b61073e565b005b610230600480360381019061022b9190611ff8565b61075e565b005b61024c60048036038101906102479190612039565b6107f4565b6040516102599190612784565b60405180910390f35b61027c60048036038101906102779190611dff565b6108a6565b6040516102899190612a48565b60405180910390f35b61029a61095e565b005b6102a46109e6565b6040516102b19190612784565b60405180910390f35b6102c2610a0f565b6040516102cf9190612806565b60405180910390f35b6102f260048036038101906102ed9190611f2e565b610aa1565b005b61030e60048036038101906103099190611ff8565b610c22565b60405161031b9190612a48565b60405180910390f35b61033e60048036038101906103399190611eb3565b610c59565b005b61035a60048036038101906103559190612039565b610cbb565b6040516103679190612806565b60405180910390f35b61038a60048036038101906103859190611e28565b610e2e565b60405161039791906127eb565b60405180910390f35b6103ba60048036038101906103b59190611dff565b610ec2565b005b60007f80ac58cd000000000000000000000000000000000000000000000000000000007bffffffffffffffffffffffffffffffffffffffffffffffffffffffff1916827bffffffffffffffffffffffffffffffffffffffffffffffffffffffff1916148061048757507f5b5e139f000000000000000000000000000000000000000000000000000000007bffffffffffffffffffffffffffffffffffffffffffffffffffffffff1916827bffffffffffffffffffffffffffffffffffffffffffffffffffffffff1916145b80610497575061049682610fba565b5b9050919050565b6060600180546104ad90612ca8565b80601f01602080910402602001604051908101604052809291908181526020018280546104d990612ca8565b80156105265780601f106104fb57610100808354040283529160200191610526565b820191906000526020600020905b81548152906001019060200180831161050957829003601f168201915b5050505050905090565b600061053b82611024565b61057a576040517f08c379a000000000000000000000000000000000000000000000000000000000815260040161057190612968565b60405180910390fd5b6005600083815260200190815260200160002060009054906101000a900473ffffffffffffffffffffffffffffffffffffffff169050919050565b60006105c0826107f4565b90508073ffffffffffffffffffffffffffffffffffffffff168373ffffffffffffffffffffffffffffffffffffffff161415610631576040517f08c379a000000000000000000000000000000000000000000000000000000000815260040161062890612a08565b60405180910390fd5b8073ffffffffffffffffffffffffffffffffffffffff16610650611090565b73ffffffffffffffffffffffffffffffffffffffff16148061067f575061067e81610679611090565b610e2e565b5b6106be576040517f08c379a00000000000000000000000000000000000000000000000000000000081526004016106b5906128e8565b60405180910390fd5b6106c88383611098565b505050565b60006106d96007611151565b905090565b6106ef6106e9611090565b8261115f565b61072e576040517f08c379a000000000000000000000000000000000000000000000000000000000815260040161072590612a28565b60405180910390fd5b61073983838361123d565b505050565b61075983838360405180602001604052806000815250610c59565b505050565b610766611090565b73ffffffffffffffffffffffffffffffffffffffff166107846109e6565b73ffffffffffffffffffffffffffffffffffffffff16146107da576040517f08c379a00000000000000000000000000000000000000000000000000000000081526004016107d1906129a8565b60405180910390fd5b80600990805190602001906107f0929190611c23565b5050565b6000806003600084815260200190815260200160002060009054906101000a900473ffffffffffffffffffffffffffffffffffffffff169050600073ffffffffffffffffffffffffffffffffffffffff168173ffffffffffffffffffffffffffffffffffffffff16141561089d576040517f08c379a000000000000000000000000000000000000000000000000000000000815260040161089490612928565b60405180910390fd5b80915050919050565b60008073ffffffffffffffffffffffffffffffffffffffff168273ffffffffffffffffffffffffffffffffffffffff161415610917576040517f08c379a000000000000000000000000000000000000000000000000000000000815260040161090e90612908565b60405180910390fd5b600460008373ffffffffffffffffffffffffffffffffffffffff1673ffffffffffffffffffffffffffffffffffffffff168152602001908152602001600020549050919050565b610966611090565b73ffffffffffffffffffffffffffffffffffffffff166109846109e6565b73ffffffffffffffffffffffffffffffffffffffff16146109da576040517f08c379a00000000000000000000000000000000000000000000000000000000081526004016109d1906129a8565b60405180910390fd5b6109e46000611499565b565b60008060009054906101000a900473ffffffffffffffffffffffffffffffffffffffff16905090565b606060028054610a1e90612ca8565b80601f0160208091040260200160405190810160405280929190818152602001828054610a4a90612ca8565b8015610a975780601f10610a6c57610100808354040283529160200191610a97565b820191906000526020600020905b815481529060010190602001808311610a7a57829003601f168201915b5050505050905090565b610aa9611090565b73ffffffffffffffffffffffffffffffffffffffff168273ffffffffffffffffffffffffffffffffffffffff161415610b17576040517f08c379a0000000000000000000000000000000000000000000000000000000008152600401610b0e906128a8565b60405180910390fd5b8060066000610b24611090565b73ffffffffffffffffffffffffffffffffffffffff1673ffffffffffffffffffffffffffffffffffffffff16815260200190815260200160002060008473ffffffffffffffffffffffffffffffffffffffff1673ffffffffffffffffffffffffffffffffffffffff16815260200190815260200160002060006101000a81548160ff0219169083151502179055508173ffffffffffffffffffffffffffffffffffffffff16610bd1611090565b73ffffffffffffffffffffffffffffffffffffffff167f17307eab39ab6107e8899845ad3d59bd9653f200f220920489ca2b5937696c3183604051610c1691906127eb565b60405180910390a35050565b6000610c2e600761155d565b6000610c3a6007611151565b9050610c463382611573565b610c508184611591565b80915050919050565b610c6a610c64611090565b8361115f565b610ca9576040517f08c379a0000000000000000000000000000000000000000000000000000000008152600401610ca090612a28565b60405180910390fd5b610cb584848484611605565b50505050565b6060610cc682611024565b610d05576040517f08c379a0000000000000000000000000000000000000000000000000000000008152600401610cfc906129e8565b60405180910390fd5b6000600860008481526020019081526020016000208054610d2590612ca8565b80601f0160208091040260200160405190810160405280929190818152602001828054610d5190612ca8565b8015610d9e5780601f10610d7357610100808354040283529160200191610d9e565b820191906000526020600020905b815481529060010190602001808311610d8157829003601f168201915b505050505090506000610daf611661565b9050600081511415610dc5578192505050610e29565b600082511115610dfa578082604051602001610de2929190612760565b60405160208183030381529060405292505050610e29565b80610e048561169e565b604051602001610e15929190612760565b604051602081830303815290604052925050505b919050565b6000600660008473ffffffffffffffffffffffffffffffffffffffff1673ffffffffffffffffffffffffffffffffffffffff16815260200190815260200160002060008373ffffffffffffffffffffffffffffffffffffffff1673ffffffffffffffffffffffffffffffffffffffff16815260200190815260200160002060009054906101000a900460ff16905092915050565b610eca611090565b73ffffffffffffffffffffffffffffffffffffffff16610ee86109e6565b73ffffffffffffffffffffffffffffffffffffffff1614610f3e576040517f08c379a0000000000000000000000000000000000000000000000000000000008152600401610f35906129a8565b60405180910390fd5b600073ffffffffffffffffffffffffffffffffffffffff168173ffffffffffffffffffffffffffffffffffffffff161415610fae576040517f08c379a0000000000000000000000000000000000000000000000000000000008152600401610fa590612848565b60405180910390fd5b610fb781611499565b50565b60007f01ffc9a7000000000000000000000000000000000000000000000000000000007bffffffffffffffffffffffffffffffffffffffffffffffffffffffff1916827bffffffffffffffffffffffffffffffffffffffffffffffffffffffff1916149050919050565b60008073ffffffffffffffffffffffffffffffffffffffff166003600084815260200190815260200160002060009054906101000a900473ffffffffffffffffffffffffffffffffffffffff1673ffffffffffffffffffffffffffffffffffffffff1614159050919050565b600033905090565b816005600083815260200190815260200160002060006101000a81548173ffffffffffffffffffffffffffffffffffffffff021916908373ffffffffffffffffffffffffffffffffffffffff160217905550808273ffffffffffffffffffffffffffffffffffffffff1661110b836107f4565b73ffffffffffffffffffffffffffffffffffffffff167f8c5be1e5ebec7d5bd14f71427d1e84f3dd0314c0f7b2291e5b200ac8c7c3b92560405160405180910390a45050565b600081600001549050919050565b600061116a82611024565b6111a9576040517f08c379a00000000000000000000000000000000000000000000000000000000081526004016111a0906128c8565b60405180910390fd5b60006111b4836107f4565b90508073ffffffffffffffffffffffffffffffffffffffff168473ffffffffffffffffffffffffffffffffffffffff16148061122357508373ffffffffffffffffffffffffffffffffffffffff1661120b84610530565b73ffffffffffffffffffffffffffffffffffffffff16145b8061123457506112338185610e2e565b5b91505092915050565b8273ffffffffffffffffffffffffffffffffffffffff1661125d826107f4565b73ffffffffffffffffffffffffffffffffffffffff16146112b3576040517f08c379a00000000000000000000000000000000000000000000000000000000081526004016112aa906129c8565b60405180910390fd5b600073ffffffffffffffffffffffffffffffffffffffff168273ffffffffffffffffffffffffffffffffffffffff161415611323576040517f08c379a000000000000000000000000000000000000000000000000000000000815260040161131a90612888565b60405180910390fd5b61132e83838361184b565b611339600082611098565b6001600460008573ffffffffffffffffffffffffffffffffffffffff1673ffffffffffffffffffffffffffffffffffffffff16815260200190815260200160002060008282546113899190612bbe565b925050819055506001600460008473ffffffffffffffffffffffffffffffffffffffff1673ffffffffffffffffffffffffffffffffffffffff16815260200190815260200160002060008282546113e09190612b37565b92505081905550816003600083815260200190815260200160002060006101000a81548173ffffffffffffffffffffffffffffffffffffffff021916908373ffffffffffffffffffffffffffffffffffffffff160217905550808273ffffffffffffffffffffffffffffffffffffffff168473ffffffffffffffffffffffffffffffffffffffff167fddf252ad1be2c89b69c2b068fc378daa952ba7f163c4a11628f55a4df523b3ef60405160405180910390a4505050565b60008060009054906101000a900473ffffffffffffffffffffffffffffffffffffffff169050816000806101000a81548173ffffffffffffffffffffffffffffffffffffffff021916908373ffffffffffffffffffffffffffffffffffffffff1602179055508173ffffffffffffffffffffffffffffffffffffffff168173ffffffffffffffffffffffffffffffffffffffff167f8be0079c531659141344cd1fd0a4f28419497f9722a3daafe3b4186f6b6457e060405160405180910390a35050565b6001816000016000828254019250508190555050565b61158d828260405180602001604052806000815250611850565b5050565b61159a82611024565b6115d9576040517f08c379a00000000000000000000000000000000000000000000000000000000081526004016115d090612988565b60405180910390fd5b80600860008481526020019081526020016000209080519060200190611600929190611c23565b505050565b61161084848461123d565b61161c848484846118ab565b61165b576040517f08c379a000000000000000000000000000000000000000000000000000000000815260040161165290612828565b60405180910390fd5b50505050565b60606040518060400160405280601581526020017f68747470733a2f2f697066732e696f2f697066732f0000000000000000000000815250905090565b606060008214156116e6576040518060400160405280600181526020017f30000000000000000000000000000000000000000000000000000000000000008152509050611846565b600082905060005b6000821461171857808061170190612cda565b915050600a826117119190612b8d565b91506116ee565b60008167ffffffffffffffff81111561175a577f4e487b7100000000000000000000000000000000000000000000000000000000600052604160045260246000fd5b6040519080825280601f01601f19166020018201604052801561178c5781602001600182028036833780820191505090505b5090505b6000851461183f576001826117a59190612bbe565b9150600a856117b49190612d23565b60306117c09190612b37565b60f81b8183815181106117fc577f4e487b7100000000000000000000000000000000000000000000000000000000600052603260045260246000fd5b60200101907effffffffffffffffffffffffffffffffffffffffffffffffffffffffffffff1916908160001a905350600a856118389190612b8d565b9450611790565b8093505050505b919050565b505050565b61185a8383611a42565b61186760008484846118ab565b6118a6576040517f08c379a000000000000000000000000000000000000000000000000000000000815260040161189d90612828565b60405180910390fd5b505050565b60006118cc8473ffffffffffffffffffffffffffffffffffffffff16611c10565b15611a35578373ffffffffffffffffffffffffffffffffffffffff1663150b7a026118f5611090565b8786866040518563ffffffff1660e01b8152600401611917949392919061279f565b602060405180830381600087803b15801561193157600080fd5b505af192505050801561196257506040513d601f19601f8201168201806040525081019061195f9190611fcf565b60015b6119e5573d8060008114611992576040519150601f19603f3d011682016040523d82523d6000602084013e611997565b606091505b506000815114156119dd576040517f08c379a00000000000000000000000000000000000000000000000000000000081526004016119d490612828565b60405180910390fd5b805181602001fd5b63150b7a0260e01b7bffffffffffffffffffffffffffffffffffffffffffffffffffffffff1916817bffffffffffffffffffffffffffffffffffffffffffffffffffffffff191614915050611a3a565b600190505b949350505050565b600073ffffffffffffffffffffffffffffffffffffffff168273ffffffffffffffffffffffffffffffffffffffff161415611ab2576040517f08c379a0000000000000000000000000000000000000000000000000000000008152600401611aa990612948565b60405180910390fd5b611abb81611024565b15611afb576040517f08c379a0000000000000000000000000000000000000000000000000000000008152600401611af290612868565b60405180910390fd5b611b076000838361184b565b6001600460008473ffffffffffffffffffffffffffffffffffffffff1673ffffffffffffffffffffffffffffffffffffffff1681526020019081526020016000206000828254611b579190612b37565b92505081905550816003600083815260200190815260200160002060006101000a81548173ffffffffffffffffffffffffffffffffffffffff021916908373ffffffffffffffffffffffffffffffffffffffff160217905550808273ffffffffffffffffffffffffffffffffffffffff16600073ffffffffffffffffffffffffffffffffffffffff167fddf252ad1be2c89b69c2b068fc378daa952ba7f163c4a11628f55a4df523b3ef60405160405180910390a45050565b600080823b905060008111915050919050565b828054611c2f90612ca8565b90600052602060002090601f016020900481019282611c515760008555611c98565b82601f10611c6a57805160ff1916838001178555611c98565b82800160010185558215611c98579182015b82811115611c97578251825591602001919060010190611c7c565b5b509050611ca59190611ca9565b5090565b5b80821115611cc2576000816000905550600101611caa565b5090565b6000611cd9611cd484612a94565b612a63565b905082815260208101848484011115611cf157600080fd5b611cfc848285612c66565b509392505050565b6000611d17611d1284612ac4565b612a63565b905082815260208101848484011115611d2f57600080fd5b611d3a848285612c66565b509392505050565b600081359050611d5181612e21565b92915050565b600081359050611d6681612e38565b92915050565b600081359050611d7b81612e4f565b92915050565b600081519050611d9081612e4f565b92915050565b600082601f830112611da757600080fd5b8135611db7848260208601611cc6565b91505092915050565b600082601f830112611dd157600080fd5b8135611de1848260208601611d04565b91505092915050565b600081359050611df981612e66565b92915050565b600060208284031215611e1157600080fd5b6000611e1f84828501611d42565b91505092915050565b60008060408385031215611e3b57600080fd5b6000611e4985828601611d42565b9250506020611e5a85828601611d42565b9150509250929050565b600080600060608486031215611e7957600080fd5b6000611e8786828701611d42565b9350506020611e9886828701611d42565b9250506040611ea986828701611dea565b9150509250925092565b60008060008060808587031215611ec957600080fd5b6000611ed787828801611d42565b9450506020611ee887828801611d42565b9350506040611ef987828801611dea565b925050606085013567ffffffffffffffff811115611f1657600080fd5b611f2287828801611d96565b91505092959194509250565b60008060408385031215611f4157600080fd5b6000611f4f85828601611d42565b9250506020611f6085828601611d57565b9150509250929050565b60008060408385031215611f7d57600080fd5b6000611f8b85828601611d42565b9250506020611f9c85828601611dea565b9150509250929050565b600060208284031215611fb857600080fd5b6000611fc684828501611d6c565b91505092915050565b600060208284031215611fe157600080fd5b6000611fef84828501611d81565b91505092915050565b60006020828403121561200a57600080fd5b600082013567ffffffffffffffff81111561202457600080fd5b61203084828501611dc0565b91505092915050565b60006020828403121561204b57600080fd5b600061205984828501611dea565b91505092915050565b61206b81612bf2565b82525050565b61207a81612c04565b82525050565b600061208b82612af4565b6120958185612b0a565b93506120a5818560208601612c75565b6120ae81612e10565b840191505092915050565b60006120c482612aff565b6120ce8185612b1b565b93506120de818560208601612c75565b6120e781612e10565b840191505092915050565b60006120fd82612aff565b6121078185612b2c565b9350612117818560208601612c75565b80840191505092915050565b6000612130603283612b1b565b91507f4552433732313a207472616e7366657220746f206e6f6e20455243373231526560008301527f63656976657220696d706c656d656e74657200000000000000000000000000006020830152604082019050919050565b6000612196602683612b1b565b91507f4f776e61626c653a206e6577206f776e657220697320746865207a65726f206160008301527f64647265737300000000000000000000000000000000000000000000000000006020830152604082019050919050565b60006121fc601c83612b1b565b91507f4552433732313a20746f6b656e20616c7265616479206d696e746564000000006000830152602082019050919050565b600061223c602483612b1b565b91507f4552433732313a207472616e7366657220746f20746865207a65726f2061646460008301527f72657373000000000000000000000000000000000000000000000000000000006020830152604082019050919050565b60006122a2601983612b1b565b91507f4552433732313a20617070726f766520746f2063616c6c6572000000000000006000830152602082019050919050565b60006122e2602c83612b1b565b91507f4552433732313a206f70657261746f7220717565727920666f72206e6f6e657860008301527f697374656e7420746f6b656e00000000000000000000000000000000000000006020830152604082019050919050565b6000612348603883612b1b565b91507f4552433732313a20617070726f76652063616c6c6572206973206e6f74206f7760008301527f6e6572206e6f7220617070726f76656420666f7220616c6c00000000000000006020830152604082019050919050565b60006123ae602a83612b1b565b91507f4552433732313a2062616c616e636520717565727920666f7220746865207a6560008301527f726f2061646472657373000000000000000000000000000000000000000000006020830152604082019050919050565b6000612414602983612b1b565b91507f4552433732313a206f776e657220717565727920666f72206e6f6e657869737460008301527f656e7420746f6b656e00000000000000000000000000000000000000000000006020830152604082019050919050565b600061247a602083612b1b565b91507f4552433732313a206d696e7420746f20746865207a65726f20616464726573736000830152602082019050919050565b60006124ba602c83612b1b565b91507f4552433732313a20617070726f76656420717565727920666f72206e6f6e657860008301527f697374656e7420746f6b656e00000000000000000000000000000000000000006020830152604082019050919050565b6000612520602c83612b1b565b91507f4552433732314d657461646174613a2055524920736574206f66206e6f6e657860008301527f697374656e7420746f6b656e00000000000000000000000000000000000000006020830152604082019050919050565b6000612586602083612b1b565b91507f4f776e61626c653a2063616c6c6572206973206e6f7420746865206f776e65726000830152602082019050919050565b60006125c6602983612b1b565b91507f4552433732313a207472616e73666572206f6620746f6b656e2074686174206960008301527f73206e6f74206f776e00000000000000000000000000000000000000000000006020830152604082019050919050565b600061262c602f83612b1b565b91507f4552433732314d657461646174613a2055524920717565727920666f72206e6f60008301527f6e6578697374656e7420746f6b656e00000000000000000000000000000000006020830152604082019050919050565b6000612692602183612b1b565b91507f4552433732313a20617070726f76616c20746f2063757272656e74206f776e6560008301527f72000000000000000000000000000000000000000000000000000000000000006020830152604082019050919050565b60006126f8603183612b1b565b91507f4552433732313a207472616e736665722063616c6c6572206973206e6f74206f60008301527f776e6572206e6f7220617070726f7665640000000000000000000000000000006020830152604082019050919050565b61275a81612c5c565b82525050565b600061276c82856120f2565b915061277882846120f2565b91508190509392505050565b60006020820190506127996000830184612062565b92915050565b60006080820190506127b46000830187612062565b6127c16020830186612062565b6127ce6040830185612751565b81810360608301526127e08184612080565b905095945050505050565b60006020820190506128006000830184612071565b92915050565b6000602082019050818103600083015261282081846120b9565b905092915050565b6000602082019050818103600083015261284181612123565b9050919050565b6000602082019050818103600083015261286181612189565b9050919050565b60006020820190508181036000830152612881816121ef565b9050919050565b600060208201905081810360008301526128a18161222f565b9050919050565b600060208201905081810360008301526128c181612295565b9050919050565b600060208201905081810360008301526128e1816122d5565b9050919050565b600060208201905081810360008301526129018161233b565b9050919050565b60006020820190508181036000830152612921816123a1565b9050919050565b6000602082019050818103600083015261294181612407565b9050919050565b600060208201905081810360008301526129618161246d565b9050919050565b60006020820190508181036000830152612981816124ad565b9050919050565b600060208201905081810360008301526129a181612513565b9050919050565b600060208201905081810360008301526129c181612579565b9050919050565b600060208201905081810360008301526129e1816125b9565b9050919050565b60006020820190508181036000830152612a018161261f565b9050919050565b60006020820190508181036000830152612a2181612685565b9050919050565b60006020820190508181036000830152612a41816126eb565b9050919050565b6000602082019050612a5d6000830184612751565b92915050565b6000604051905081810181811067ffffffffffffffff82111715612a8a57612a89612de1565b5b8060405250919050565b600067ffffffffffffffff821115612aaf57612aae612de1565b5b601f19601f8301169050602081019050919050565b600067ffffffffffffffff821115612adf57612ade612de1565b5b601f19601f8301169050602081019050919050565b600081519050919050565b600081519050919050565b600082825260208201905092915050565b600082825260208201905092915050565b600081905092915050565b6000612b4282612c5c565b9150612b4d83612c5c565b9250827fffffffffffffffffffffffffffffffffffffffffffffffffffffffffffffffff03821115612b8257612b81612d54565b5b828201905092915050565b6000612b9882612c5c565b9150612ba383612c5c565b925082612bb357612bb2612d83565b5b828204905092915050565b6000612bc982612c5c565b9150612bd483612c5c565b925082821015612be757612be6612d54565b5b828203905092915050565b6000612bfd82612c3c565b9050919050565b60008115159050919050565b60007fffffffff0000000000000000000000000000000000000000000000000000000082169050919050565b600073ffffffffffffffffffffffffffffffffffffffff82169050919050565b6000819050919050565b82818337600083830152505050565b60005b83811015612c93578082015181840152602081019050612c78565b83811115612ca2576000848401525b50505050565b60006002820490506001821680612cc057607f821691505b60208210811415612cd457612cd3612db2565b5b50919050565b6000612ce582612c5c565b91507fffffffffffffffffffffffffffffffffffffffffffffffffffffffffffffffff821415612d1857612d17612d54565b5b600182019050919050565b6000612d2e82612c5c565b9150612d3983612c5c565b925082612d4957612d48612d83565b5b828206905092915050565b7f4e487b7100000000000000000000000000000000000000000000000000000000600052601160045260246000fd5b7f4e487b7100000000000000000000000000000000000000000000000000000000600052601260045260246000fd5b7f4e487b7100000000000000000000000000000000000000000000000000000000600052602260045260246000fd5b7f4e487b7100000000000000000000000000000000000000000000000000000000600052604160045260246000fd5b6000601f19601f8301169050919050565b612e2a81612bf2565b8114612e3557600080fd5b50565b612e4181612c04565b8114612e4c57600080fd5b50565b612e5881612c10565b8114612e6357600080fd5b50565b612e6f81612c5c565b8114612e7a57600080fd5b5056fea264697066735822122073d3b75a4280d50d91ff5df2cac01fe9576a7d5448fead09a4d44bea7cddf0d464736f6c63430008000033",
  "immutableReferences": {},
  "source": "// SPDX-License-Identifier: MIT\npragma solidity >=0.4.22 <0.9.0;\n\nimport \"@openzeppelin/contracts/token/ERC721/ERC721.sol\";\nimport \"@openzeppelin/contracts/utils/Counters.sol\";\nimport \"@openzeppelin/contracts/access/Ownable.sol\";\n\ncontract ArtCollectible is Ownable, ERC721 {\n    using Counters for Counters.Counter;\n    Counters.Counter private _tokenIds;\n    using Strings for uint256;\n    // Optional mapping for token URIs\n    mapping(uint256 => string) private _tokenURIs;\n\n    // Base URI\n    string private _baseURIextended;\n\n    constructor() public ERC721(\"artCollectible\", \"ARTToken\") {}\n\n    function setBaseURI(string memory baseURI_) external onlyOwner {\n        _baseURIextended = baseURI_;\n    }\n\n    function _setTokenURI(uint256 tokenId, string memory _tokenURI) internal virtual\n    {\n        require(_exists(tokenId),\"ERC721Metadata: URI set of nonexistent token\");\n        _tokenURIs[tokenId] = _tokenURI;\n    }\n\n    function _baseURI() internal view virtual override returns (string memory) {\n        return \"https://ipfs.io/ipfs/\";\n    }\n\n    function tokenURI(uint256 tokenId) public view virtual override returns (string memory){\n        require(_exists(tokenId),\"ERC721Metadata: URI query for nonexistent token\");\n        string memory _tokenURI = _tokenURIs[tokenId];\n        string memory  base  = _baseURI();\n\n        // If there is no base URI, return the token URI.\n        if (bytes(base).length == 0) {\n            return _tokenURI;\n        }\n        // If both are set, concatenate the baseURI and tokenURI (via abi.encodePacked).\n        if (bytes(_tokenURI).length > 0) {\n            return string(abi.encodePacked(base, _tokenURI));\n        }\n        // If there is a baseURI but no tokenURI, concatenate the tokenID to the baseURI.\n        return string(abi.encodePacked(base, tokenId.toString()));\n    }\n\n    function claimItem(string memory tokenURI) public returns (uint256) {\n        _tokenIds.increment();\n        uint256 newItemId = _tokenIds.current();\n        _safeMint(msg.sender, newItemId);\n        _setTokenURI(newItemId, tokenURI);\n        return newItemId;\n    }\n\n    function totalSupply() public view returns (uint256) {\n        return _tokenIds.current();\n    }\n}",
  "sourcePath": "/home/umer/CodeNfts Erc721/contracts/ArtCollectible.sol",
  "compiler": {
    "name": "solc",
    "version": "0.8.0+commit.c7dfd78e.Emscripten.clang"
  },
  "schemaVersion": "3.4.3",
  "updatedAt": "2021-10-25T14:16:05.188Z",
  "networkType": "ethereum",
  "devdoc": {
    "kind": "dev",
    "methods": {
      "approve(address,uint256)": {
        "details": "See {IERC721-approve}."
      },
      "balanceOf(address)": {
        "details": "See {IERC721-balanceOf}."
      },
      "getApproved(uint256)": {
        "details": "See {IERC721-getApproved}."
      },
      "isApprovedForAll(address,address)": {
        "details": "See {IERC721-isApprovedForAll}."
      },
      "name()": {
        "details": "See {IERC721Metadata-name}."
      },
      "owner()": {
        "details": "Returns the address of the current owner."
      },
      "ownerOf(uint256)": {
        "details": "See {IERC721-ownerOf}."
      },
      "renounceOwnership()": {
        "details": "Leaves the contract without owner. It will not be possible to call `onlyOwner` functions anymore. Can only be called by the current owner. NOTE: Renouncing ownership will leave the contract without an owner, thereby removing any functionality that is only available to the owner."
      },
      "safeTransferFrom(address,address,uint256)": {
        "details": "See {IERC721-safeTransferFrom}."
      },
      "safeTransferFrom(address,address,uint256,bytes)": {
        "details": "See {IERC721-safeTransferFrom}."
      },
      "setApprovalForAll(address,bool)": {
        "details": "See {IERC721-setApprovalForAll}."
      },
      "supportsInterface(bytes4)": {
        "details": "See {IERC165-supportsInterface}."
      },
      "symbol()": {
        "details": "See {IERC721Metadata-symbol}."
      },
      "tokenURI(uint256)": {
        "details": "See {IERC721Metadata-tokenURI}."
      },
      "transferFrom(address,address,uint256)": {
        "details": "See {IERC721-transferFrom}."
      },
      "transferOwnership(address)": {
        "details": "Transfers ownership of the contract to a new account (`newOwner`). Can only be called by the current owner."
      }
    },
    "version": 1
  },
  "userdoc": {
    "kind": "user",
    "methods": {},
    "version": 1
  }
}